{
  "contractName": "Ballot",
  "abi": [
    {
      "constant": false,
      "inputs": [
        {
          "name": "proposal",
          "type": "uint256"
        }
      ],
      "name": "vote",
      "outputs": [],
      "payable": false,
      "stateMutability": "nonpayable",
      "type": "function"
    },
    {
      "constant": true,
      "inputs": [
        {
          "name": "",
          "type": "uint256"
        }
      ],
      "name": "proposals",
      "outputs": [
        {
          "name": "name",
          "type": "bytes32"
        },
        {
          "name": "voteCount",
          "type": "uint256"
        }
      ],
      "payable": false,
      "stateMutability": "view",
      "type": "function"
    },
    {
      "constant": true,
      "inputs": [
        {
          "name": "index",
          "type": "uint256"
        }
      ],
      "name": "getProposalVoteCount",
      "outputs": [
        {
          "name": "",
          "type": "uint256"
        }
      ],
      "payable": false,
      "stateMutability": "view",
      "type": "function"
    },
    {
      "constant": false,
      "inputs": [
        {
          "name": "proposalName",
          "type": "bytes32"
        }
      ],
      "name": "createProposal",
      "outputs": [],
      "payable": false,
      "stateMutability": "nonpayable",
      "type": "function"
    },
    {
      "constant": true,
      "inputs": [],
      "name": "chairperson",
      "outputs": [
        {
          "name": "",
          "type": "address"
        }
      ],
      "payable": false,
      "stateMutability": "view",
      "type": "function"
    },
    {
      "constant": true,
      "inputs": [
        {
          "name": "index",
          "type": "uint256"
        }
      ],
      "name": "getProposalName",
      "outputs": [
        {
          "name": "",
          "type": "bytes32"
        }
      ],
      "payable": false,
      "stateMutability": "view",
      "type": "function"
    },
    {
      "constant": false,
      "inputs": [
        {
          "name": "to",
          "type": "address"
        }
      ],
      "name": "delegate",
      "outputs": [],
      "payable": false,
      "stateMutability": "nonpayable",
      "type": "function"
    },
    {
      "constant": true,
      "inputs": [],
      "name": "winningProposal",
      "outputs": [
        {
          "name": "winner",
          "type": "uint256"
        }
      ],
      "payable": false,
      "stateMutability": "view",
      "type": "function"
    },
    {
      "constant": true,
      "inputs": [],
      "name": "getProposalsCount",
      "outputs": [
        {
          "name": "",
          "type": "uint256"
        }
      ],
      "payable": false,
      "stateMutability": "view",
      "type": "function"
    },
    {
      "constant": false,
      "inputs": [
        {
          "name": "voter",
          "type": "address"
        }
      ],
      "name": "giveRightToVote",
      "outputs": [],
      "payable": false,
      "stateMutability": "nonpayable",
      "type": "function"
    },
    {
      "constant": true,
      "inputs": [
        {
          "name": "",
          "type": "address"
        }
      ],
      "name": "voters",
      "outputs": [
        {
          "name": "weight",
          "type": "uint256"
        },
        {
          "name": "voted",
          "type": "bool"
        },
        {
          "name": "delegate",
          "type": "address"
        },
        {
          "name": "vote",
          "type": "uint256"
        }
      ],
      "payable": false,
      "stateMutability": "view",
      "type": "function"
    },
    {
      "constant": true,
      "inputs": [
        {
          "name": "voter",
          "type": "address"
        }
      ],
      "name": "getVoterWeight",
      "outputs": [
        {
          "name": "",
          "type": "uint256"
        }
      ],
      "payable": false,
      "stateMutability": "view",
      "type": "function"
    },
    {
      "constant": true,
      "inputs": [],
      "name": "winnerName",
      "outputs": [
        {
          "name": "name",
          "type": "bytes32"
        }
      ],
      "payable": false,
      "stateMutability": "view",
      "type": "function"
    },
    {
      "inputs": [
        {
          "name": "proposalNames",
          "type": "bytes32[]"
        }
      ],
      "payable": false,
      "stateMutability": "nonpayable",
      "type": "constructor"
    }
  ],
  "bytecode": "0x6060604052341561000f57600080fd5b604051610ee7380380610ee7833981016040528080518201919050506000336000806101000a81548173ffffffffffffffffffffffffffffffffffffffff021916908373ffffffffffffffffffffffffffffffffffffffff16021790555060018060008060009054906101000a900473ffffffffffffffffffffffffffffffffffffffff1673ffffffffffffffffffffffffffffffffffffffff1673ffffffffffffffffffffffffffffffffffffffff16815260200190815260200160002060000181905550600090505b81518110156101235761011682828151811015156100f457fe5b9060200190602002015161012a64010000000002610536176401000000009004565b80806001019150506100da565b5050610249565b6000809054906101000a900473ffffffffffffffffffffffffffffffffffffffff1673ffffffffffffffffffffffffffffffffffffffff163373ffffffffffffffffffffffffffffffffffffffff1614151561018557600080fd5b6002805480600101828161019991906101e8565b9160005260206000209060020201600060408051908101604052808560001916815260200160008152509091909150600082015181600001906000191690556020820151816001015550505050565b81548183558181151161021557600202816002028360005260206000209182019101610214919061021a565b5b505050565b61024691905b8082111561024257600080820160009055600182016000905550600201610220565b5090565b90565b610c8f806102586000396000f3006060604052600436106100c5576000357c0100000000000000000000000000000000000000000000000000000000900463ffffffff1680630121b93f146100ca578063013cf08b146100ed5780630645b8db146101335780632542bf061461016a5780632e4176cf14610191578063429b92bf146101e65780635c19a95c14610225578063609ff1bd1461025e57806398e527d3146102875780639e7b8d61146102b0578063a3ec138d146102e9578063d85c91ae1461037b578063e2ba53f0146103c8575b600080fd5b34156100d557600080fd5b6100eb60048080359060200190919050506103f9565b005b34156100f857600080fd5b61010e60048080359060200190919050506104b6565b6040518083600019166000191681526020018281526020019250505060405180910390f35b341561013e57600080fd5b61015460048080359060200190919050506104e9565b6040518082815260200191505060405180910390f35b341561017557600080fd5b61018f600480803560001916906020019091905050610536565b005b341561019c57600080fd5b6101a46105f4565b604051808273ffffffffffffffffffffffffffffffffffffffff1673ffffffffffffffffffffffffffffffffffffffff16815260200191505060405180910390f35b34156101f157600080fd5b6102076004808035906020019091905050610619565b60405180826000191660001916815260200191505060405180910390f35b341561023057600080fd5b61025c600480803573ffffffffffffffffffffffffffffffffffffffff16906020019091905050610666565b005b341561026957600080fd5b610271610950565b6040518082815260200191505060405180910390f35b341561029257600080fd5b61029a6109cb565b6040518082815260200191505060405180910390f35b34156102bb57600080fd5b6102e7600480803573ffffffffffffffffffffffffffffffffffffffff169060200190919050506109d8565b005b34156102f457600080fd5b610320600480803573ffffffffffffffffffffffffffffffffffffffff16906020019091905050610b2a565b60405180858152602001841515151581526020018373ffffffffffffffffffffffffffffffffffffffff1673ffffffffffffffffffffffffffffffffffffffff16815260200182815260200194505050505060405180910390f35b341561038657600080fd5b6103b2600480803573ffffffffffffffffffffffffffffffffffffffff16906020019091905050610b87565b6040518082815260200191505060405180910390f35b34156103d357600080fd5b6103db610bd3565b60405180826000191660001916815260200191505060405180910390f35b6000600160003373ffffffffffffffffffffffffffffffffffffffff1673ffffffffffffffffffffffffffffffffffffffff16815260200190815260200160002090508060010160009054906101000a900460ff1615151561045a57600080fd5b60018160010160006101000a81548160ff021916908315150217905550818160020181905550806000015460028381548110151561049457fe5b9060005260206000209060020201600101600082825401925050819055505050565b6002818154811015156104c557fe5b90600052602060002090600202016000915090508060000154908060010154905082565b6000600280549050821015156104fe57600080fd5b6000821015151561050e57600080fd5b60028281548110151561051d57fe5b9060005260206000209060020201600101549050919050565b6000809054906101000a900473ffffffffffffffffffffffffffffffffffffffff1673ffffffffffffffffffffffffffffffffffffffff163373ffffffffffffffffffffffffffffffffffffffff1614151561059157600080fd5b600280548060010182816105a59190610c02565b9160005260206000209060020201600060408051908101604052808560001916815260200160008152509091909150600082015181600001906000191690556020820151816001015550505050565b6000809054906101000a900473ffffffffffffffffffffffffffffffffffffffff1681565b60006002805490508210151561062e57600080fd5b6000821015151561063e57600080fd5b60028281548110151561064d57fe5b9060005260206000209060020201600001549050919050565b600080600160003373ffffffffffffffffffffffffffffffffffffffff1673ffffffffffffffffffffffffffffffffffffffff16815260200190815260200160002091508160010160009054906101000a900460ff161515156106c857600080fd5b3373ffffffffffffffffffffffffffffffffffffffff168373ffffffffffffffffffffffffffffffffffffffff161415151561070357600080fd5b5b600073ffffffffffffffffffffffffffffffffffffffff16600160008573ffffffffffffffffffffffffffffffffffffffff1673ffffffffffffffffffffffffffffffffffffffff16815260200190815260200160002060010160019054906101000a900473ffffffffffffffffffffffffffffffffffffffff1673ffffffffffffffffffffffffffffffffffffffff1614151561084157600160008473ffffffffffffffffffffffffffffffffffffffff1673ffffffffffffffffffffffffffffffffffffffff16815260200190815260200160002060010160019054906101000a900473ffffffffffffffffffffffffffffffffffffffff1692503373ffffffffffffffffffffffffffffffffffffffff168373ffffffffffffffffffffffffffffffffffffffff161415151561083c57600080fd5b610704565b60018260010160006101000a81548160ff021916908315150217905550828260010160016101000a81548173ffffffffffffffffffffffffffffffffffffffff021916908373ffffffffffffffffffffffffffffffffffffffff160217905550600160008473ffffffffffffffffffffffffffffffffffffffff1673ffffffffffffffffffffffffffffffffffffffff16815260200190815260200160002090508060010160009054906101000a900460ff16156109345781600001546002826002015481548110151561091157fe5b90600052602060002090600202016001016000828254019250508190555061094b565b816000015481600001600082825401925050819055505b505050565b6000806000809150600090505b6002805490508110156109c6578160028281548110151561097a57fe5b90600052602060002090600202016001015411156109b9576002818154811015156109a157fe5b90600052602060002090600202016001015491508092505b808060010191505061095d565b505090565b6000600280549050905090565b6000809054906101000a900473ffffffffffffffffffffffffffffffffffffffff1673ffffffffffffffffffffffffffffffffffffffff163373ffffffffffffffffffffffffffffffffffffffff16141515610a3357600080fd5b600160008273ffffffffffffffffffffffffffffffffffffffff1673ffffffffffffffffffffffffffffffffffffffff16815260200190815260200160002060010160009054906101000a900460ff16151515610a8f57600080fd5b6000600160008373ffffffffffffffffffffffffffffffffffffffff1673ffffffffffffffffffffffffffffffffffffffff16815260200190815260200160002060000154141515610ae057600080fd5b60018060008373ffffffffffffffffffffffffffffffffffffffff1673ffffffffffffffffffffffffffffffffffffffff1681526020019081526020016000206000018190555050565b60016020528060005260406000206000915090508060000154908060010160009054906101000a900460ff16908060010160019054906101000a900473ffffffffffffffffffffffffffffffffffffffff16908060020154905084565b6000600160008373ffffffffffffffffffffffffffffffffffffffff1673ffffffffffffffffffffffffffffffffffffffff168152602001908152602001600020600001549050919050565b60006002610bdf610950565b815481101515610beb57fe5b906000526020600020906002020160000154905090565b815481835581811511610c2f57600202816002028360005260206000209182019101610c2e9190610c34565b5b505050565b610c6091905b80821115610c5c57600080820160009055600182016000905550600201610c3a565b5090565b905600a165627a7a723058207911a409c7ea581decbaf277053fbac9d4926952c6844b211f6d2dbdb80798c80029",
  "source": "pragma solidity ^0.4.16;\r\n\r\ncontract Ballot {\r\n  struct Voter {\r\n    uint weight;\r\n    bool voted;\r\n    address delegate;\r\n    uint vote;\r\n  }\r\n\r\n  struct Proposal {\r\n    bytes32 name;\r\n    uint voteCount;\r\n  }\r\n\r\n  address public chairperson;\r\n\r\n  // declare a state variable that stores a voter struct for each\r\n  // possible address\r\n  mapping(address => Voter) public voters;\r\n\r\n  Proposal[] public proposals;\r\n\r\n  function Ballot(bytes32[] proposalNames) public {\r\n    chairperson = msg.sender;\r\n    voters[chairperson].weight = 1;\r\n    for (uint i = 0; i < proposalNames.length; i++) {\r\n      createProposal(proposalNames[i]);\r\n    }\r\n  }\r\n\r\n  function createProposal (bytes32 proposalName) public {\r\n    require(msg.sender == chairperson);\r\n    proposals.push(Proposal({\r\n      name: proposalName,\r\n      voteCount: 0\r\n    }));\r\n\r\n  }\r\n\r\n  function getProposalsCount() public constant returns (uint)  {\r\n    return proposals.length;\r\n  }\r\n\r\n  function getVoterWeight (address voter) constant public returns (uint)  {\r\n    return voters[voter].weight;\r\n  }\r\n\r\n  function giveRightToVote(address voter) public {\r\n    require(msg.sender == chairperson);\r\n    require(!voters[voter].voted);\r\n    require(voters[voter].weight == 0);\r\n\r\n    voters[voter].weight = 1;\r\n  }\r\n\r\n  function delegate(address to) public {\r\n    Voter storage sender = voters[msg.sender];\r\n    require(!sender.voted);\r\n\r\n    require(to != msg.sender);\r\n\r\n    // iterate until we find an entry with an empty address entry\r\n    while (voters[to].delegate != address(0)) {\r\n      to = voters[to].delegate;\r\n      require(to != msg.sender);\r\n    }\r\n\r\n    sender.voted = true;\r\n    sender.delegate = to;\r\n\r\n    Voter storage delegate_to = voters[to];\r\n    if (delegate_to.voted) {\r\n      proposals[delegate_to.vote].voteCount += sender.weight;\r\n    } else {\r\n      delegate_to.weight += sender.weight;\r\n    }\r\n  }\r\n\r\n  function vote (uint proposal) public {\r\n    Voter storage sender = voters[msg.sender];\r\n    require(!sender.voted);\r\n    sender.voted = true;\r\n    sender.vote = proposal;\r\n\r\n    proposals[proposal].voteCount += sender.weight;\r\n  }\r\n\r\n  function winningProposal() constant public returns (uint winner) {\r\n    uint winningVoteCount = 0;\r\n    for (uint p = 0; p < proposals.length; p ++) {\r\n      if (proposals[p].voteCount > winningVoteCount) {\r\n        winningVoteCount = proposals[p].voteCount;\r\n        winner = p;\r\n      }\r\n    }\r\n  }\r\n\r\n  function winnerName() constant public returns (bytes32 name) {\r\n    name = proposals[winningProposal()].name;\r\n  }\r\n\r\n  function getProposalName(uint index) public constant returns (bytes32) {\r\n    require(index < proposals.length);\r\n    require(index >= 0);\r\n    return proposals[index].name;\r\n  }\r\n\r\n  function getProposalVoteCount(uint index) public constant returns (uint) {\r\n    require(index < proposals.length);\r\n    require(index >= 0);\r\n    return proposals[index].voteCount;\r\n  }\r\n}\r\n",
  "sourcePath": "C:\\Users\\Admin\\Desktop\\New folder\\Certified-Smart-Contract-Developer\\Project 5 - Voting Ballot\\contracts\\Ballot.sol",
  "compiler": {
    "name": "solc",
    "version": "0.4.18+commit.9cf6e910.Emscripten.clang"
  },
  "schemaVersion": "1.0.1",
  "updatedAt": "2018-01-23T06:57:17.362Z"
}