{
  "contractName": "admined",
  "abi": [
    {
      "constant": false,
      "inputs": [
        {
          "name": "newAdmin",
          "type": "address"
        }
      ],
      "name": "transferAdminship",
      "outputs": [],
      "payable": false,
      "stateMutability": "nonpayable",
      "type": "function"
    },
    {
      "constant": true,
      "inputs": [],
      "name": "admin",
      "outputs": [
        {
          "name": "",
          "type": "address"
        }
      ],
      "payable": false,
      "stateMutability": "view",
      "type": "function"
    },
    {
      "inputs": [],
      "payable": false,
      "stateMutability": "nonpayable",
      "type": "constructor"
    }
  ],
  "bytecode": "0x6060604052341561000f57600080fd5b336000806101000a81548173ffffffffffffffffffffffffffffffffffffffff021916908373ffffffffffffffffffffffffffffffffffffffff1602179055506101ce8061005e6000396000f30060606040526004361061004c576000357c0100000000000000000000000000000000000000000000000000000000900463ffffffff1680635be7cc1614610051578063f851a4401461008a575b600080fd5b341561005c57600080fd5b610088600480803573ffffffffffffffffffffffffffffffffffffffff169060200190919050506100df565b005b341561009557600080fd5b61009d61017d565b604051808273ffffffffffffffffffffffffffffffffffffffff1673ffffffffffffffffffffffffffffffffffffffff16815260200191505060405180910390f35b6000809054906101000a900473ffffffffffffffffffffffffffffffffffffffff1673ffffffffffffffffffffffffffffffffffffffff163373ffffffffffffffffffffffffffffffffffffffff1614151561013a57600080fd5b806000806101000a81548173ffffffffffffffffffffffffffffffffffffffff021916908373ffffffffffffffffffffffffffffffffffffffff16021790555050565b6000809054906101000a900473ffffffffffffffffffffffffffffffffffffffff16815600a165627a7a72305820d78ec775d8d6310b4b76f0e09730ba76043ecee80896c2a19c6f8c4e965e7e350029",
  "source": "pragma solidity ^0.4.18;\r\n\r\ncontract admined {\r\n\taddress public admin;\r\n\r\n\tfunction admined() public {\r\n\t\tadmin = msg.sender;\r\n\t}\r\n\r\n\tmodifier onlyAdmin(){\r\n\t\trequire(msg.sender == admin) ;\r\n\t\t_;\r\n\t}\r\n\r\n\tfunction transferAdminship(address newAdmin) onlyAdmin public  {\r\n\t\tadmin = newAdmin;\r\n\t}\r\n\r\n}\r\n\r\ncontract TCoin {\r\n\r\n\tmapping (address => uint256) public balanceOf;\r\n\tmapping (address => mapping (address => uint256)) public allowance;\r\n\t// balanceOf[address] = 5;\r\n\tstring public standard = \"TCoin v1.0\";\r\n\tstring public name;\r\n\tstring public symbol;\r\n\tuint8 public decimals; \r\n\tuint256 public totalSupply;\r\n\tevent Transfer(address indexed from, address indexed to, uint256 value);\r\n\r\n\r\n\tfunction TCoin(uint256 initialSupply, string tokenName, string tokenSymbol, uint8 decimalUnits) public {\r\n\t\tbalanceOf[msg.sender] = initialSupply;\r\n\t\ttotalSupply = initialSupply;\r\n\t\tdecimals = decimalUnits;\r\n\t\tsymbol = tokenSymbol;\r\n\t\tname = tokenName;\r\n\t}\r\n\r\n\tfunction transfer(address _to, uint256 _value) public {\r\n\t\trequire(balanceOf[msg.sender] > _value) ;\r\n\t\trequire(balanceOf[_to] + _value > balanceOf[_to]) ;\r\n\t\t//if(admin)\r\n\r\n\t\tbalanceOf[msg.sender] -= _value;\r\n\t\tbalanceOf[_to] += _value;\r\n\t\tTransfer(msg.sender, _to, _value);\r\n\t}\r\n\r\n\tfunction approve(address _spender, uint256 _value) public returns (bool success){\r\n\t\tallowance[msg.sender][_spender] = _value;\r\n\t\treturn true;\r\n\t}\r\n\r\n\tfunction transferFrom(address _from, address _to, uint256 _value) public returns (bool success){\r\n\t\trequire(balanceOf[_from] > _value) ;\r\n\t\trequire(balanceOf[_to] + _value > balanceOf[_to]) ;\r\n\t\trequire(_value < allowance[_from][msg.sender]) ;\r\n\t\tbalanceOf[_from] -= _value;\r\n\t\tbalanceOf[_to] += _value;\r\n\t\tallowance[_from][msg.sender] -= _value;\r\n\t\tTransfer(_from, _to, _value);\r\n\t\treturn true;\r\n\r\n\t}\r\n}\r\n",
  "sourcePath": "C:\\Users\\Admin\\Desktop\\New folder\\Certified-Smart-Contract-Developer\\Project 1 - ERC 20 Token\\contracts\\ERC20.sol",
  "compiler": {
    "name": "solc",
    "version": "0.4.18+commit.9cf6e910.Emscripten.clang"
  },
  "schemaVersion": "1.0.1",
  "updatedAt": "2018-01-23T07:14:11.894Z"
}