{
  "contractName": "ToDo",
  "abi": [
    {
      "constant": true,
      "inputs": [
        {
          "name": "id",
          "type": "uint256"
        }
      ],
      "name": "getTask",
      "outputs": [
        {
          "name": "task",
          "type": "string"
        },
        {
          "name": "time",
          "type": "string"
        }
      ],
      "payable": false,
      "stateMutability": "view",
      "type": "function"
    },
    {
      "constant": true,
      "inputs": [],
      "name": "getTaskCount",
      "outputs": [
        {
          "name": "length",
          "type": "uint256"
        }
      ],
      "payable": false,
      "stateMutability": "view",
      "type": "function"
    },
    {
      "constant": true,
      "inputs": [
        {
          "name": "index",
          "type": "uint256"
        }
      ],
      "name": "getTaskIdAt",
      "outputs": [
        {
          "name": "id",
          "type": "uint256"
        }
      ],
      "payable": false,
      "stateMutability": "view",
      "type": "function"
    },
    {
      "constant": false,
      "inputs": [
        {
          "name": "id",
          "type": "uint256"
        },
        {
          "name": "task",
          "type": "string"
        },
        {
          "name": "time",
          "type": "string"
        }
      ],
      "name": "addTask",
      "outputs": [
        {
          "name": "successful",
          "type": "bool"
        }
      ],
      "payable": false,
      "stateMutability": "nonpayable",
      "type": "function"
    },
    {
      "anonymous": false,
      "inputs": [
        {
          "indexed": false,
          "name": "id",
          "type": "uint256"
        },
        {
          "indexed": false,
          "name": "task",
          "type": "string"
        },
        {
          "indexed": false,
          "name": "time",
          "type": "string"
        }
      ],
      "name": "LogTaskAdded",
      "type": "event"
    }
  ],
  "bytecode": "0x6060604052341561000f57600080fd5b6106ed8061001e6000396000f300606060405260043610610062576000357c0100000000000000000000000000000000000000000000000000000000900463ffffffff1680631d65e77e14610067578063c17a340e1461016f578063f5d0212314610198578063fb8820c2146101cf575b600080fd5b341561007257600080fd5b6100886004808035906020019091905050610290565b604051808060200180602001838103835285818151815260200191508051906020019080838360005b838110156100cc5780820151818401526020810190506100b1565b50505050905090810190601f1680156100f95780820380516001836020036101000a031916815260200191505b50838103825284818151815260200191508051906020019080838360005b83811015610132578082015181840152602081019050610117565b50505050905090810190601f16801561015f5780820380516001836020036101000a031916815260200191505b5094505050505060405180910390f35b341561017a57600080fd5b610182610400565b6040518082815260200191505060405180910390f35b34156101a357600080fd5b6101b9600480803590602001909190505061040d565b6040518082815260200191505060405180910390f35b34156101da57600080fd5b610276600480803590602001909190803590602001908201803590602001908080601f0160208091040260200160405190810160405280939291908181526020018383808284378201915050505050509190803590602001908201803590602001908080601f01602080910402602001604051908101604052809392919081815260200183838082843782019150505050505091905050610431565b604051808215151515815260200191505060405180910390f35b6102986105dc565b6102a06105dc565b600080600085815260200190815260200160002090508060000181600101818054600181600116156101000203166002900480601f0160208091040260200160405190810160405280929190818152602001828054600181600116156101000203166002900480156103535780601f1061032857610100808354040283529160200191610353565b820191906000526020600020905b81548152906001019060200180831161033657829003601f168201915b50505050509150808054600181600116156101000203166002900480601f0160208091040260200160405190810160405280929190818152602001828054600181600116156101000203166002900480156103ef5780601f106103c4576101008083540402835291602001916103ef565b820191906000526020600020905b8154815290600101906020018083116103d257829003601f168201915b505050505090509250925050915091565b6000600180549050905090565b600060018281548110151561041e57fe5b9060005260206000209001549050919050565b600060408051908101604052808481526020018381525060008086815260200190815260200160002060008201518160000190805190602001906104769291906105f0565b5060208201518160010190805190602001906104939291906105f0565b50905050600180548060010182816104ab9190610670565b9160005260206000209001600086909190915055507f465dcef349131c00c73684c73bf8af8da869c54044b9b12d80e66ec654c717eb848484604051808481526020018060200180602001838103835285818151815260200191508051906020019080838360005b8381101561052e578082015181840152602081019050610513565b50505050905090810190601f16801561055b5780820380516001836020036101000a031916815260200191505b50838103825284818151815260200191508051906020019080838360005b83811015610594578082015181840152602081019050610579565b50505050905090810190601f1680156105c15780820380516001836020036101000a031916815260200191505b509550505050505060405180910390a1600190509392505050565b602060405190810160405280600081525090565b828054600181600116156101000203166002900490600052602060002090601f016020900481019282601f1061063157805160ff191683800117855561065f565b8280016001018555821561065f579182015b8281111561065e578251825591602001919060010190610643565b5b50905061066c919061069c565b5090565b81548183558181151161069757818360005260206000209182019101610696919061069c565b5b505050565b6106be91905b808211156106ba5760008160009055506001016106a2565b5090565b905600a165627a7a72305820847c262314c250899f3cefa805d87e6699b7b9fd29e27d489a82716a7e7a1e3f0029",
  "source": "pragma solidity ^0.4.18;\r\n\r\n\r\ncontract ToDo {\r\n    struct Routine { //structure for storing data\r\n        string task;\r\n        string time;    \r\n    }\r\n    event LogTaskAdded(uint id, string task, string time); //logging the event after task gets added.\r\n    \r\n    mapping(uint => Routine) private routines;\r\n    uint[] private ids;\r\n\r\n    function getTaskCount() //function for getting all the task counts.\r\n            constant public\r\n            returns (uint length) {\r\n        return ids.length;    \r\n    }\r\n\r\n    function getTaskIdAt(uint index) //function for getting the task id.\r\n            constant public\r\n            returns (uint id) {\r\n        return ids[index];\r\n    }\r\n\r\n    function getTask(uint id) //function for getting the task deatail by supplying the task id.\r\n            constant public\r\n            returns (string task, string time) {\r\n        Routine storage routine = routines[id];\r\n        return (\r\n            routine.task,\r\n            routine.time);\r\n    }\r\n\r\n    function addTask(uint id, string task, string time)//function for adding the task.\r\n    public\r\n            returns (bool successful) {\r\n        routines[id] = Routine({\r\n            task: task,\r\n            time: time\r\n        });\r\n        ids.push(id);\r\n        LogTaskAdded(id, task, time);\r\n        return true;\r\n    }\r\n\r\n   \r\n}",
  "sourcePath": "C:\\Users\\Admin\\Desktop\\New folder\\Certified-Smart-Contract-Developer\\Project 3 - ToDo Smart Contract\\contracts\\ToDo.sol",
  "compiler": {
    "name": "solc",
    "version": "0.4.18+commit.9cf6e910.Emscripten.clang"
  },
  "schemaVersion": "1.0.1",
  "updatedAt": "2018-01-23T07:06:55.108Z"
}